{
  "contractName": "Comments",
  "abi": [
    {
      "anonymous": false,
      "inputs": [
        {
          "indexed": false,
          "internalType": "address",
          "name": "author",
          "type": "address"
        },
        {
          "indexed": false,
          "internalType": "string",
          "name": "content",
          "type": "string"
        },
        {
          "indexed": false,
          "internalType": "uint256",
          "name": "tips",
          "type": "uint256"
        },
        {
          "indexed": false,
          "internalType": "uint256",
          "name": "timestamp",
          "type": "uint256"
        }
      ],
      "name": "commentAdded",
      "type": "event"
    },
    {
      "anonymous": false,
      "inputs": [
        {
          "indexed": false,
          "internalType": "uint256",
          "name": "id",
          "type": "uint256"
        },
        {
          "indexed": false,
          "internalType": "int256",
          "name": "amount",
          "type": "int256"
        }
      ],
      "name": "tipped",
      "type": "event"
    },
    {
      "inputs": [
        {
          "internalType": "uint256",
          "name": "",
          "type": "uint256"
        },
        {
          "internalType": "address",
          "name": "",
          "type": "address"
        }
      ],
      "name": "addressToTips",
      "outputs": [
        {
          "internalType": "uint256",
          "name": "",
          "type": "uint256"
        }
      ],
      "stateMutability": "view",
      "type": "function",
      "constant": true
    },
    {
      "inputs": [
        {
          "internalType": "uint256",
          "name": "",
          "type": "uint256"
        },
        {
          "internalType": "address",
          "name": "",
          "type": "address"
        }
      ],
      "name": "addressToUnTips",
      "outputs": [
        {
          "internalType": "uint256",
          "name": "",
          "type": "uint256"
        }
      ],
      "stateMutability": "view",
      "type": "function",
      "constant": true
    },
    {
      "inputs": [
        {
          "internalType": "uint256",
          "name": "",
          "type": "uint256"
        }
      ],
      "name": "addressesTipped",
      "outputs": [
        {
          "internalType": "address",
          "name": "",
          "type": "address"
        }
      ],
      "stateMutability": "view",
      "type": "function",
      "constant": true
    },
    {
      "inputs": [],
      "name": "commentCount",
      "outputs": [
        {
          "internalType": "uint256",
          "name": "",
          "type": "uint256"
        }
      ],
      "stateMutability": "view",
      "type": "function",
      "constant": true
    },
    {
      "inputs": [
        {
          "internalType": "uint256",
          "name": "",
          "type": "uint256"
        }
      ],
      "name": "comments",
      "outputs": [
        {
          "internalType": "uint256",
          "name": "id",
          "type": "uint256"
        },
        {
          "internalType": "uint256",
          "name": "tips",
          "type": "uint256"
        },
        {
          "internalType": "uint256",
          "name": "untips",
          "type": "uint256"
        },
        {
          "internalType": "string",
          "name": "content",
          "type": "string"
        },
        {
          "internalType": "address payable",
          "name": "author",
          "type": "address"
        }
      ],
      "stateMutability": "view",
      "type": "function",
      "constant": true
    },
    {
      "inputs": [
        {
          "internalType": "uint256",
          "name": "",
          "type": "uint256"
        },
        {
          "internalType": "address",
          "name": "",
          "type": "address"
        }
      ],
      "name": "tippers",
      "outputs": [
        {
          "internalType": "bool",
          "name": "",
          "type": "bool"
        }
      ],
      "stateMutability": "view",
      "type": "function",
      "constant": true
    },
    {
      "inputs": [
        {
          "internalType": "uint256",
          "name": "",
          "type": "uint256"
        },
        {
          "internalType": "address",
          "name": "",
          "type": "address"
        }
      ],
      "name": "unTippers",
      "outputs": [
        {
          "internalType": "bool",
          "name": "",
          "type": "bool"
        }
      ],
      "stateMutability": "view",
      "type": "function",
      "constant": true
    },
    {
      "inputs": [
        {
          "internalType": "uint256",
          "name": "_id",
          "type": "uint256"
        }
      ],
      "name": "getCommentTippers",
      "outputs": [
        {
          "internalType": "address[]",
          "name": "",
          "type": "address[]"
        }
      ],
      "stateMutability": "view",
      "type": "function",
      "constant": true
    },
    {
      "inputs": [
        {
          "internalType": "uint256",
          "name": "_id",
          "type": "uint256"
        },
        {
          "internalType": "address",
          "name": "_tipper",
          "type": "address"
        }
      ],
      "name": "getAddressToTips",
      "outputs": [
        {
          "internalType": "uint256",
          "name": "",
          "type": "uint256"
        }
      ],
      "stateMutability": "view",
      "type": "function",
      "constant": true
    },
    {
      "inputs": [],
      "name": "getTippers",
      "outputs": [
        {
          "internalType": "address[]",
          "name": "",
          "type": "address[]"
        }
      ],
      "stateMutability": "view",
      "type": "function",
      "constant": true
    },
    {
      "inputs": [
        {
          "internalType": "uint256",
          "name": "_id",
          "type": "uint256"
        },
        {
          "internalType": "uint256",
          "name": "_amount",
          "type": "uint256"
        }
      ],
      "name": "tipComment",
      "outputs": [],
      "stateMutability": "nonpayable",
      "type": "function"
    },
    {
      "inputs": [
        {
          "internalType": "uint256",
          "name": "_id",
          "type": "uint256"
        },
        {
          "internalType": "uint256",
          "name": "_amount",
          "type": "uint256"
        }
      ],
      "name": "unTipComment",
      "outputs": [],
      "stateMutability": "nonpayable",
      "type": "function"
    },
    {
      "inputs": [
        {
          "internalType": "uint256",
          "name": "_id",
          "type": "uint256"
        },
        {
          "internalType": "uint256",
          "name": "i",
          "type": "uint256"
        }
      ],
      "name": "getUntippers",
      "outputs": [
        {
          "internalType": "uint256",
          "name": "",
          "type": "uint256"
        }
      ],
      "stateMutability": "view",
      "type": "function",
      "constant": true
    },
    {
      "inputs": [
        {
          "internalType": "address",
          "name": "_addr",
          "type": "address"
        }
      ],
      "name": "getBalance",
      "outputs": [
        {
          "internalType": "uint256",
          "name": "",
          "type": "uint256"
        }
      ],
      "stateMutability": "view",
      "type": "function",
      "constant": true
    },
    {
      "inputs": [
        {
          "internalType": "string",
          "name": "_content",
          "type": "string"
        },
        {
          "internalType": "uint256",
          "name": "_value",
          "type": "uint256"
        }
      ],
      "name": "addComment",
      "outputs": [],
      "stateMutability": "nonpayable",
      "type": "function"
    },
    {
      "inputs": [],
      "name": "getCommentCount",
      "outputs": [
        {
          "internalType": "uint256",
          "name": "",
          "type": "uint256"
        }
      ],
      "stateMutability": "view",
      "type": "function",
      "constant": true
    },
    {
      "inputs": [
        {
          "internalType": "uint256",
          "name": "_id",
          "type": "uint256"
        }
      ],
      "name": "getCommentById",
      "outputs": [
        {
          "components": [
            {
              "internalType": "uint256",
              "name": "id",
              "type": "uint256"
            },
            {
              "internalType": "uint256",
              "name": "tips",
              "type": "uint256"
            },
            {
              "internalType": "uint256",
              "name": "untips",
              "type": "uint256"
            },
            {
              "internalType": "string",
              "name": "content",
              "type": "string"
            },
            {
              "internalType": "address payable",
              "name": "author",
              "type": "address"
            },
            {
              "internalType": "address[]",
              "name": "tippers",
              "type": "address[]"
            },
            {
              "internalType": "address[]",
              "name": "unTippers",
              "type": "address[]"
            }
          ],
          "internalType": "struct Comments.Comment",
          "name": "",
          "type": "tuple"
        }
      ],
      "stateMutability": "view",
      "type": "function",
      "constant": true
    },
    {
      "inputs": [],
      "name": "pay",
      "outputs": [],
      "stateMutability": "payable",
      "type": "function",
      "payable": true
    }
  ],
  "bytecode": "0x60806040526000805534801561001457600080fd5b506128da806100246000396000f3fe6080604052600436106101095760003560e01c806396a3d8d711610095578063e37f9b0a11610064578063e37f9b0a146103ac578063f2ca8418146103d7578063f8b2cb4f14610414578063fb51a01814610451578063fc4fce1d1461048e57610109565b806396a3d8d7146102cc57806399ffd94d146102f5578063cf5ff19214610332578063e2f5e0df1461036f57610109565b806345ff20de116100dc57806345ff20de146101bd5780634b947fa5146101e85780635c0397c2146102115780636c43dbb41461024e5780638ebb4c151461028b57610109565b806316e31ea31461010e5780631b9265b8146101395780632e217951146101435780634126d13b14610180575b600080fd5b34801561011a57600080fd5b506101236104b7565b6040516101309190611d20565b60405180910390f35b6101416104c0565b005b34801561014f57600080fd5b5061016a60048036038101906101659190611d7b565b6104c2565b6040516101779190611de9565b60405180910390f35b34801561018c57600080fd5b506101a760048036038101906101a29190611e30565b610501565b6040516101b49190611d20565b60405180910390f35b3480156101c957600080fd5b506101d2610526565b6040516101df9190611d20565b60405180910390f35b3480156101f457600080fd5b5061020f600480360381019061020a9190611e70565b61052c565b005b34801561021d57600080fd5b5061023860048036038101906102339190611e30565b610c68565b6040516102459190611d20565b60405180910390f35b34801561025a57600080fd5b5061027560048036038101906102709190611d7b565b610cc3565b60405161028291906120e1565b60405180910390f35b34801561029757600080fd5b506102b260048036038101906102ad9190611d7b565b610f12565b6040516102c395949392919061215c565b60405180910390f35b3480156102d857600080fd5b506102f360048036038101906102ee91906122eb565b610ff0565b005b34801561030157600080fd5b5061031c60048036038101906103179190611d7b565b61117a565b60405161032991906123b6565b60405180910390f35b34801561033e57600080fd5b5061035960048036038101906103549190611e70565b61121e565b6040516103669190611d20565b60405180910390f35b34801561037b57600080fd5b5061039660048036038101906103919190611e30565b611292565b6040516103a391906123f3565b60405180910390f35b3480156103b857600080fd5b506103c16112c1565b6040516103ce91906123b6565b60405180910390f35b3480156103e357600080fd5b506103fe60048036038101906103f99190611e30565b61134f565b60405161040b91906123f3565b60405180910390f35b34801561042057600080fd5b5061043b6004803603810190610436919061240e565b61137e565b6040516104489190611d20565b60405180910390f35b34801561045d57600080fd5b5061047860048036038101906104739190611e30565b6113b2565b6040516104859190611d20565b60405180910390f35b34801561049a57600080fd5b506104b560048036038101906104b09190611e70565b6113d7565b005b60008054905090565b565b600181815481106104d257600080fd5b906000526020600020016000915054906101000a900473ffffffffffffffffffffffffffffffffffffffff1681565b6004602052816000526040600020602052806000526040600020600091509150505481565b60005481565b600073ffffffffffffffffffffffffffffffffffffffff163373ffffffffffffffffffffffffffffffffffffffff16141561059c576040517f08c379a000000000000000000000000000000000000000000000000000000000815260040161059390612487565b60405180910390fd5b600015156003600084815260200190815260200160002060003373ffffffffffffffffffffffffffffffffffffffff1673ffffffffffffffffffffffffffffffffffffffff16815260200190815260200160002060009054906101000a900460ff16151514610640576040517f08c379a0000000000000000000000000000000000000000000000000000000008152600401610637906124f3565b60405180910390fd5b600015156005600084815260200190815260200160002060003373ffffffffffffffffffffffffffffffffffffffff1673ffffffffffffffffffffffffffffffffffffffff16815260200190815260200160002060009054906101000a900460ff161515146106e4576040517f08c379a00000000000000000000000000000000000000000000000000000000081526004016106db9061255f565b60405180910390fd5b8060026000848152602001908152602001600020600201600082825461070a91906125ae565b9250508190555060016005600084815260200190815260200160002060003373ffffffffffffffffffffffffffffffffffffffff1673ffffffffffffffffffffffffffffffffffffffff16815260200190815260200160002060006101000a81548160ff02191690831515021790555060016003600084815260200190815260200160002060003373ffffffffffffffffffffffffffffffffffffffff1673ffffffffffffffffffffffffffffffffffffffff16815260200190815260200160002060006101000a81548160ff021916908315150217905550806006600084815260200190815260200160002060003373ffffffffffffffffffffffffffffffffffffffff1673ffffffffffffffffffffffffffffffffffffffff168152602001908152602001600020600082825461084391906125ae565b9250508190555060026000838152602001908152602001600020600601339080600181540180825580915050600190039060005260206000200160009091909190916101000a81548173ffffffffffffffffffffffffffffffffffffffff021916908373ffffffffffffffffffffffffffffffffffffffff1602179055506108ca33611a75565b5060005b600054811015610bf3576000600260008381526020019081526020016000206002018190555060005b6002600083815260200190815260200160002060060180549050811015610bdf576002600083815260200190815260200160002060060181815481106109405761093f612604565b5b9060005260206000200160009054906101000a900473ffffffffffffffffffffffffffffffffffffffff1673ffffffffffffffffffffffffffffffffffffffff16316002600084815260200190815260200160002060020160008282546109a791906125ae565b925050819055506002600083815260200190815260200160002060060181815481106109d6576109d5612604565b5b9060005260206000200160009054906101000a900473ffffffffffffffffffffffffffffffffffffffff1673ffffffffffffffffffffffffffffffffffffffff1631600660008481526020019081526020016000206000600260008681526020019081526020016000206006018481548110610a5557610a54612604565b5b9060005260206000200160009054906101000a900473ffffffffffffffffffffffffffffffffffffffff1673ffffffffffffffffffffffffffffffffffffffff1673ffffffffffffffffffffffffffffffffffffffff168152602001908152602001600020819055507f13a4aeb0498fa63ebd9ca430675e3e60fa47b504c3ba8eb015b149ec8a8b64398260026000858152602001908152602001600020600201546002600086815260200190815260200160002060010154610b18919061263d565b604051610b269291906126e0565b60405180910390a17f13a4aeb0498fa63ebd9ca430675e3e60fa47b504c3ba8eb015b149ec8a8b6439826002600085815260200190815260200160002060010154604051610b759291906126e0565b60405180910390a17f13a4aeb0498fa63ebd9ca430675e3e60fa47b504c3ba8eb015b149ec8a8b6439826002600085815260200190815260200160002060020154604051610bc49291906126e0565b60405180910390a18080610bd790612709565b9150506108f7565b508080610beb90612709565b9150506108ce565b507f13a4aeb0498fa63ebd9ca430675e3e60fa47b504c3ba8eb015b149ec8a8b64398260026000858152602001908152602001600020600201546002600086815260200190815260200160002060010154610c4e919061263d565b604051610c5c9291906126e0565b60405180910390a15050565b60006004600084815260200190815260200160002060008373ffffffffffffffffffffffffffffffffffffffff1673ffffffffffffffffffffffffffffffffffffffff16815260200190815260200160002054905092915050565b610ccb611b87565b600260008381526020019081526020016000206040518060e0016040529081600082015481526020016001820154815260200160028201548152602001600382018054610d1790612781565b80601f0160208091040260200160405190810160405280929190818152602001828054610d4390612781565b8015610d905780601f10610d6557610100808354040283529160200191610d90565b820191906000526020600020905b815481529060010190602001808311610d7357829003601f168201915b505050505081526020016004820160009054906101000a900473ffffffffffffffffffffffffffffffffffffffff1673ffffffffffffffffffffffffffffffffffffffff1673ffffffffffffffffffffffffffffffffffffffff16815260200160058201805480602002602001604051908101604052809291908181526020018280548015610e7457602002820191906000526020600020905b8160009054906101000a900473ffffffffffffffffffffffffffffffffffffffff1673ffffffffffffffffffffffffffffffffffffffff1681526020019060010190808311610e2a575b5050505050815260200160068201805480602002602001604051908101604052809291908181526020018280548015610f0257602002820191906000526020600020905b8160009054906101000a900473ffffffffffffffffffffffffffffffffffffffff1673ffffffffffffffffffffffffffffffffffffffff1681526020019060010190808311610eb8575b5050505050815250509050919050565b6002602052806000526040600020600091509050806000015490806001015490806002015490806003018054610f4790612781565b80601f0160208091040260200160405190810160405280929190818152602001828054610f7390612781565b8015610fc05780601f10610f9557610100808354040283529160200191610fc0565b820191906000526020600020905b815481529060010190602001808311610fa357829003601f168201915b5050505050908060040160009054906101000a900473ffffffffffffffffffffffffffffffffffffffff16905085565b6060806040518060e00160405280600054815260200160008152602001600081526020018581526020013373ffffffffffffffffffffffffffffffffffffffff168152602001838152602001828152506002600080548152602001908152602001600020600082015181600001556020820151816001015560408201518160020155606082015181600301908051906020019061108e929190611bda565b5060808201518160040160006101000a81548173ffffffffffffffffffffffffffffffffffffffff021916908373ffffffffffffffffffffffffffffffffffffffff16021790555060a08201518160050190805190602001906110f2929190611c60565b5060c082015181600601908051906020019061110f929190611c60565b509050507f83e3daed4f60a9f1f3f515f6fc6bcd2ea924cfc69b9781cf92a4251d588db903338560004260405161114994939291906127f8565b60405180910390a161115d600054846113d7565b60008081548092919061116f90612709565b919050555050505050565b60606002600083815260200190815260200160002060050180548060200260200160405190810160405280929190818152602001828054801561121257602002820191906000526020600020905b8160009054906101000a900473ffffffffffffffffffffffffffffffffffffffff1673ffffffffffffffffffffffffffffffffffffffff16815260200190600101908083116111c8575b50505050509050919050565b600060026000848152602001908152602001600020600601828154811061124857611247612604565b5b9060005260206000200160009054906101000a900473ffffffffffffffffffffffffffffffffffffffff1673ffffffffffffffffffffffffffffffffffffffff1631905092915050565b60036020528160005260406000206020528060005260406000206000915091509054906101000a900460ff1681565b6060600180548060200260200160405190810160405280929190818152602001828054801561134557602002820191906000526020600020905b8160009054906101000a900473ffffffffffffffffffffffffffffffffffffffff1673ffffffffffffffffffffffffffffffffffffffff16815260200190600101908083116112fb575b5050505050905090565b60056020528160005260406000206020528060005260406000206000915091509054906101000a900460ff1681565b6000670de0b6b3a76400008273ffffffffffffffffffffffffffffffffffffffff16316113ab9190612873565b9050919050565b6006602052816000526040600020602052806000526040600020600091509150505481565b600073ffffffffffffffffffffffffffffffffffffffff163373ffffffffffffffffffffffffffffffffffffffff161415611447576040517f08c379a000000000000000000000000000000000000000000000000000000000815260040161143e90612487565b60405180910390fd5b600015156003600084815260200190815260200160002060003373ffffffffffffffffffffffffffffffffffffffff1673ffffffffffffffffffffffffffffffffffffffff16815260200190815260200160002060009054906101000a900460ff161515146114eb576040517f08c379a00000000000000000000000000000000000000000000000000000000081526004016114e2906124f3565b60405180910390fd5b600015156005600084815260200190815260200160002060003373ffffffffffffffffffffffffffffffffffffffff1673ffffffffffffffffffffffffffffffffffffffff16815260200190815260200160002060009054906101000a900460ff1615151461158f576040517f08c379a00000000000000000000000000000000000000000000000000000000081526004016115869061255f565b60405180910390fd5b806002600084815260200190815260200160002060010160008282546115b591906125ae565b9250508190555060016005600084815260200190815260200160002060003373ffffffffffffffffffffffffffffffffffffffff1673ffffffffffffffffffffffffffffffffffffffff16815260200190815260200160002060006101000a81548160ff02191690831515021790555060016003600084815260200190815260200160002060003373ffffffffffffffffffffffffffffffffffffffff1673ffffffffffffffffffffffffffffffffffffffff16815260200190815260200160002060006101000a81548160ff021916908315150217905550806004600084815260200190815260200160002060003373ffffffffffffffffffffffffffffffffffffffff1673ffffffffffffffffffffffffffffffffffffffff16815260200190815260200160002060008282546116ee91906125ae565b9250508190555060026000838152602001908152602001600020600501339080600181540180825580915050600190039060005260206000200160009091909190916101000a81548173ffffffffffffffffffffffffffffffffffffffff021916908373ffffffffffffffffffffffffffffffffffffffff16021790555061177533611a75565b5060005b600054811015611a00576000600260008381526020019081526020016000206001018190555060005b60026000838152602001908152602001600020600501805490508110156119ec576002600083815260200190815260200160002060050181815481106117eb576117ea612604565b5b9060005260206000200160009054906101000a900473ffffffffffffffffffffffffffffffffffffffff1673ffffffffffffffffffffffffffffffffffffffff163160026000848152602001908152602001600020600101600082825461185291906125ae565b9250508190555060026000838152602001908152602001600020600501818154811061188157611880612604565b5b9060005260206000200160009054906101000a900473ffffffffffffffffffffffffffffffffffffffff1673ffffffffffffffffffffffffffffffffffffffff1631600460008481526020019081526020016000206000600260008681526020019081526020016000206005018481548110611900576118ff612604565b5b9060005260206000200160009054906101000a900473ffffffffffffffffffffffffffffffffffffffff1673ffffffffffffffffffffffffffffffffffffffff1673ffffffffffffffffffffffffffffffffffffffff168152602001908152602001600020819055507f13a4aeb0498fa63ebd9ca430675e3e60fa47b504c3ba8eb015b149ec8a8b643982600260008581526020019081526020016000206002015460026000868152602001908152602001600020600101546119c3919061263d565b6040516119d19291906126e0565b60405180910390a180806119e490612709565b9150506117a2565b5080806119f890612709565b915050611779565b507f13a4aeb0498fa63ebd9ca430675e3e60fa47b504c3ba8eb015b149ec8a8b64398260026000858152602001908152602001600020600201546002600086815260200190815260200160002060010154611a5b919061263d565b604051611a699291906126e0565b60405180910390a15050565b600080600090505b600180549050811015611b195760018181548110611a9e57611a9d612604565b5b9060005260206000200160009054906101000a900473ffffffffffffffffffffffffffffffffffffffff1673ffffffffffffffffffffffffffffffffffffffff168373ffffffffffffffffffffffffffffffffffffffff161415611b06576000915050611b82565b8080611b1190612709565b915050611a7d565b506001829080600181540180825580915050600190039060005260206000200160009091909190916101000a81548173ffffffffffffffffffffffffffffffffffffffff021916908373ffffffffffffffffffffffffffffffffffffffff160217905550600190505b919050565b6040518060e0016040528060008152602001600081526020016000815260200160608152602001600073ffffffffffffffffffffffffffffffffffffffff16815260200160608152602001606081525090565b828054611be690612781565b90600052602060002090601f016020900481019282611c085760008555611c4f565b82601f10611c2157805160ff1916838001178555611c4f565b82800160010185558215611c4f579182015b82811115611c4e578251825591602001919060010190611c33565b5b509050611c5c9190611cea565b5090565b828054828255906000526020600020908101928215611cd9579160200282015b82811115611cd85782518260006101000a81548173ffffffffffffffffffffffffffffffffffffffff021916908373ffffffffffffffffffffffffffffffffffffffff16021790555091602001919060010190611c80565b5b509050611ce69190611cea565b5090565b5b80821115611d03576000816000905550600101611ceb565b5090565b6000819050919050565b611d1a81611d07565b82525050565b6000602082019050611d356000830184611d11565b92915050565b6000604051905090565b600080fd5b600080fd5b611d5881611d07565b8114611d6357600080fd5b50565b600081359050611d7581611d4f565b92915050565b600060208284031215611d9157611d90611d45565b5b6000611d9f84828501611d66565b91505092915050565b600073ffffffffffffffffffffffffffffffffffffffff82169050919050565b6000611dd382611da8565b9050919050565b611de381611dc8565b82525050565b6000602082019050611dfe6000830184611dda565b92915050565b611e0d81611dc8565b8114611e1857600080fd5b50565b600081359050611e2a81611e04565b92915050565b60008060408385031215611e4757611e46611d45565b5b6000611e5585828601611d66565b9250506020611e6685828601611e1b565b9150509250929050565b60008060408385031215611e8757611e86611d45565b5b6000611e9585828601611d66565b9250506020611ea685828601611d66565b9150509250929050565b611eb981611d07565b82525050565b600081519050919050565b600082825260208201905092915050565b60005b83811015611ef9578082015181840152602081019050611ede565b83811115611f08576000848401525b50505050565b6000601f19601f8301169050919050565b6000611f2a82611ebf565b611f348185611eca565b9350611f44818560208601611edb565b611f4d81611f0e565b840191505092915050565b6000611f6382611da8565b9050919050565b611f7381611f58565b82525050565b600081519050919050565b600082825260208201905092915050565b6000819050602082019050919050565b611fae81611dc8565b82525050565b6000611fc08383611fa5565b60208301905092915050565b6000602082019050919050565b6000611fe482611f79565b611fee8185611f84565b9350611ff983611f95565b8060005b8381101561202a5781516120118882611fb4565b975061201c83611fcc565b925050600181019050611ffd565b5085935050505092915050565b600060e08301600083015161204f6000860182611eb0565b5060208301516120626020860182611eb0565b5060408301516120756040860182611eb0565b506060830151848203606086015261208d8282611f1f565b91505060808301516120a26080860182611f6a565b5060a083015184820360a08601526120ba8282611fd9565b91505060c083015184820360c08601526120d48282611fd9565b9150508091505092915050565b600060208201905081810360008301526120fb8184612037565b905092915050565b600082825260208201905092915050565b600061211f82611ebf565b6121298185612103565b9350612139818560208601611edb565b61214281611f0e565b840191505092915050565b61215681611f58565b82525050565b600060a0820190506121716000830188611d11565b61217e6020830187611d11565b61218b6040830186611d11565b818103606083015261219d8185612114565b90506121ac608083018461214d565b9695505050505050565b600080fd5b600080fd5b7f4e487b7100000000000000000000000000000000000000000000000000000000600052604160045260246000fd5b6121f882611f0e565b810181811067ffffffffffffffff82111715612217576122166121c0565b5b80604052505050565b600061222a611d3b565b905061223682826121ef565b919050565b600067ffffffffffffffff821115612256576122556121c0565b5b61225f82611f0e565b9050602081019050919050565b82818337600083830152505050565b600061228e6122898461223b565b612220565b9050828152602081018484840111156122aa576122a96121bb565b5b6122b584828561226c565b509392505050565b600082601f8301126122d2576122d16121b6565b5b81356122e284826020860161227b565b91505092915050565b6000806040838503121561230257612301611d45565b5b600083013567ffffffffffffffff8111156123205761231f611d4a565b5b61232c858286016122bd565b925050602061233d85828601611d66565b9150509250929050565b600082825260208201905092915050565b600061236382611f79565b61236d8185612347565b935061237883611f95565b8060005b838110156123a95781516123908882611fb4565b975061239b83611fcc565b92505060018101905061237c565b5085935050505092915050565b600060208201905081810360008301526123d08184612358565b905092915050565b60008115159050919050565b6123ed816123d8565b82525050565b600060208201905061240860008301846123e4565b92915050565b60006020828403121561242457612423611d45565b5b600061243284828501611e1b565b91505092915050565b7f53656e6465722063616e27742062652061646472657373203000000000000000600082015250565b6000612471601983612103565b915061247c8261243b565b602082019050919050565b600060208201905081810360008301526124a081612464565b9050919050565b7f5573657220616c72656164792074697070656400000000000000000000000000600082015250565b60006124dd601383612103565b91506124e8826124a7565b602082019050919050565b6000602082019050818103600083015261250c816124d0565b9050919050565b7f5573657220616c726561647920756e5469707065640000000000000000000000600082015250565b6000612549601583612103565b915061255482612513565b602082019050919050565b600060208201905081810360008301526125788161253c565b9050919050565b7f4e487b7100000000000000000000000000000000000000000000000000000000600052601160045260246000fd5b60006125b982611d07565b91506125c483611d07565b9250827fffffffffffffffffffffffffffffffffffffffffffffffffffffffffffffffff038211156125f9576125f861257f565b5b828201905092915050565b7f4e487b7100000000000000000000000000000000000000000000000000000000600052603260045260246000fd5b6000819050919050565b600061264882612633565b915061265383612633565b9250827f80000000000000000000000000000000000000000000000000000000000000000182126000841215161561268e5761268d61257f565b5b827f7fffffffffffffffffffffffffffffffffffffffffffffffffffffffffffffff0182136000841216156126c6576126c561257f565b5b828203905092915050565b6126da81612633565b82525050565b60006040820190506126f56000830185611d11565b61270260208301846126d1565b9392505050565b600061271482611d07565b91507fffffffffffffffffffffffffffffffffffffffffffffffffffffffffffffffff8214156127475761274661257f565b5b600182019050919050565b7f4e487b7100000000000000000000000000000000000000000000000000000000600052602260045260246000fd5b6000600282049050600182168061279957607f821691505b602082108114156127ad576127ac612752565b5b50919050565b6000819050919050565b6000819050919050565b60006127e26127dd6127d8846127b3565b6127bd565b611d07565b9050919050565b6127f2816127c7565b82525050565b600060808201905061280d6000830187611dda565b818103602083015261281f8186612114565b905061282e60408301856127e9565b61283b6060830184611d11565b95945050505050565b7f4e487b7100000000000000000000000000000000000000000000000000000000600052601260045260246000fd5b600061287e82611d07565b915061288983611d07565b92508261289957612898612844565b5b82820490509291505056fea264697066735822122095dada4ee24bbc89b595acbbd9aa0b4ae0479c6ab9613547c9b9df8287aa91dc64736f6c63430008090033",
  "immutableReferences": {},
  "source": "// SPDX-License-Identifier: MIT\r\npragma solidity >=0.4.22 <0.9.0;\r\n\r\ncontract Comments {\r\n    event commentAdded(\r\n        address author,\r\n        string content,\r\n        uint256 tips,\r\n        uint256 timestamp\r\n    );\r\n\r\n    event tipped(uint256 id, int256 amount);\r\n\r\n    struct Comment {\r\n        uint256 id;\r\n        uint256 tips;\r\n        uint256 untips;\r\n        string content;\r\n        address payable author;\r\n        address[] tippers;\r\n        address[] unTippers;\r\n    }\r\n\r\n    uint256 public commentCount = 0;\r\n    address[] public addressesTipped;\r\n\r\n    mapping(uint256 => Comment) public comments;\r\n    mapping(uint256 => mapping(address => bool)) public tippers; // (Comment.id => (tipper => bool))\r\n    mapping(uint256 => mapping(address => uint256)) public addressToTips; // (Comment.id => (adres => wartosc tipa))\r\n\r\n    mapping(uint256 => mapping(address => bool)) public unTippers; // (Comment.id => (tipper => bool))\r\n    mapping(uint256 => mapping(address => uint256)) public addressToUnTips; // (Comment.id => (adres => wartosc tipa))\r\n\r\n    function getCommentTippers(uint256 _id)\r\n        public\r\n        view\r\n        returns (address[] memory)\r\n    {\r\n        return comments[_id].tippers;\r\n    }\r\n\r\n    function getAddressToTips(uint256 _id, address _tipper)\r\n        public\r\n        view\r\n        returns (uint256)\r\n    {\r\n        return addressToTips[_id][_tipper];\r\n    }\r\n\r\n    function getTippers() public view returns (address[] memory) {\r\n        return addressesTipped;\r\n    }\r\n\r\n    function addTipper(address _tipper) private returns (bool) {\r\n        for (uint256 i = 0; i < addressesTipped.length; i++) {\r\n            if (_tipper == addressesTipped[i]) {\r\n                return false;\r\n            }\r\n        }\r\n        addressesTipped.push(_tipper);\r\n        return true;\r\n    }\r\n\r\n    function tipComment(uint256 _id, uint256 _amount) public {\r\n        require(msg.sender != address(0), \"Sender can't be address 0\");\r\n        require(tippers[_id][msg.sender] == false, \"User already tipped\");\r\n        require(unTippers[_id][msg.sender] == false, \"User already unTipped\");\r\n\r\n        comments[_id].tips += _amount;\r\n\r\n        unTippers[_id][msg.sender] = true;\r\n        tippers[_id][msg.sender] = true;\r\n\r\n        addressToTips[_id][msg.sender] += _amount;\r\n        comments[_id].tippers.push(msg.sender);\r\n\r\n        addTipper(msg.sender);\r\n\r\n        // Refreshing all balances for all comments\r\n        for (uint256 id = 0; id < commentCount; id++) {\r\n            comments[id].tips = 0;\r\n            for (uint256 i = 0; i < comments[id].tippers.length; i++) {\r\n                comments[id].tips += comments[id].tippers[i].balance;\r\n                addressToTips[id][comments[id].tippers[i]] = comments[id]\r\n                    .tippers[i]\r\n                    .balance;\r\n                emit tipped(\r\n                    id,\r\n                    int256(\r\n                        int256(comments[id].tips) - int256(comments[id].untips)\r\n                    )\r\n                );\r\n            }\r\n        }\r\n\r\n        emit tipped(\r\n            _id,\r\n            int256(int256(comments[_id].tips) - int256(comments[_id].untips))\r\n        );\r\n    }\r\n\r\n    function unTipComment(uint256 _id, uint256 _amount) public {\r\n        require(msg.sender != address(0), \"Sender can't be address 0\");\r\n        require(tippers[_id][msg.sender] == false, \"User already tipped\");\r\n        require(unTippers[_id][msg.sender] == false, \"User already unTipped\");\r\n\r\n        comments[_id].untips += _amount;\r\n\r\n        unTippers[_id][msg.sender] = true;\r\n        tippers[_id][msg.sender] = true;\r\n\r\n        addressToUnTips[_id][msg.sender] += _amount;\r\n        comments[_id].unTippers.push(msg.sender);\r\n\r\n        addTipper(msg.sender);\r\n\r\n        // Refreshing all balances for all comments\r\n        for (uint256 id = 0; id < commentCount; id++) {\r\n            comments[id].untips = 0;\r\n            for (uint256 i = 0; i < comments[id].unTippers.length; i++) {\r\n                comments[id].untips += comments[id].unTippers[i].balance;\r\n                addressToUnTips[id][comments[id].unTippers[i]] = comments[id]\r\n                    .unTippers[i]\r\n                    .balance;\r\n                emit tipped(\r\n                    id,\r\n                    int256(\r\n                        int256(comments[id].tips) - int256(comments[id].untips)\r\n                    )\r\n                );\r\n                emit tipped(id, int256(comments[id].tips));\r\n                emit tipped(id, int256(comments[id].untips));\r\n            }\r\n        }\r\n        emit tipped(\r\n            _id,\r\n            int256(int256(comments[_id].tips) - int256(comments[_id].untips))\r\n        );\r\n    }\r\n\r\n    function getUntippers(uint256 _id, uint256 i)\r\n        public\r\n        view\r\n        returns (uint256)\r\n    {\r\n        return comments[_id].unTippers[i].balance;\r\n    }\r\n\r\n    function getBalance(address _addr) external view returns (uint256) {\r\n        return _addr.balance / (1 ether);\r\n    }\r\n\r\n    function addComment(string memory _content, uint256 _value) public {\r\n        address[] memory tab;\r\n        address[] memory tab1;\r\n\r\n        comments[commentCount] = Comment(\r\n            commentCount,\r\n            0,\r\n            0,\r\n            _content,\r\n            payable(msg.sender),\r\n            tab,\r\n            tab1\r\n        );\r\n        emit commentAdded(msg.sender, _content, 0, block.timestamp);\r\n        tipComment(commentCount, _value);\r\n        commentCount++;\r\n    }\r\n\r\n    function getCommentCount() public view returns (uint256) {\r\n        return commentCount;\r\n    }\r\n\r\n    function getCommentById(uint256 _id) public view returns (Comment memory) {\r\n        return comments[_id];\r\n    }\r\n\r\n    function pay() public payable {}\r\n}\r\n",
  "sourcePath": "C:\\Users\\Mariusz\\Documents\\GitHub\\hashup-contracts\\contracts\\Comments.sol",
  "compiler": {
    "name": "solc",
    "version": "0.8.9+commit.e5eed63a.Emscripten.clang"
  },
  "schemaVersion": "3.4.3",
  "updatedAt": "2021-11-28T19:47:40.602Z",
  "networkType": "ethereum",
  "devdoc": {
    "kind": "dev",
    "methods": {},
    "version": 1
  },
  "userdoc": {
    "kind": "user",
    "methods": {},
    "version": 1
  }
}